:020000040800F2
:100000000000032091020008DD020008DD02000864
:10001000DD020008DD020008DD020008000000002B
:10002000000000000000000000000000DD020008E9
:10003000DD02000800000000DD020008DD0200080B
:10004000DD020008DD020008DD020008DD02000814
:10005000DD020008DD020008DD020008DD02000804
:10006000DD020008DD020008DD020008DD020008F4
:10007000DD020008DD020008DD020008DD020008E4
:10008000DD020008DD020008DD020008DD020008D4
:10009000DD020008DD020008DD020008DD020008C4
:1000A000DD020008DD020008DD020008DD020008B4
:1000B000DD020008DD020008DD020008DD020008A4
:1000C000DD020008DD020008DD020008DD02000894
:1000D000DD020008DD020008DD020008DD02000884
:1000E000DD020008DD020008DD020008DD02000874
:1000F000DD020008DD020008DD020008DD02000864
:10010000DD020008DD020008DD020008DD02000853
:10011000DD020008DD020008DD020008DD02000843
:10012000DD020008DD020008DD020008DD02000833
:10013000DD020008DD020008DD020008DD02000823
:10014000DD020008DD020008DD020008DD02000813
:10015000DD020008DD020008DD020008DD02000803
:10016000DD020008DD020008DD020008DD020008F3
:10017000DD020008DD020008DD02000800000000CA
:10018000DD020008DD020008DD020008DD020008D3
:10019000DD020008DD020008DD020008DD020008C3
:0C01A000DD020008DD020008DD0200089E
:1001AC000348044B834202D0034B03B118477047FA
:1001BC000000002000000020000000000548064B55
:1001CC001B1AD90F01EBA301491002D0034B03B149
:1001DC0018477047000000200000002000000000BD
:1001EC0010B5064C227842B9FFF7DAFF044B13B175
:1001FC000448AFF300800123237010BD00000020E1
:10020C00000000002803000808B5054B1BB1054988
:10021C000548AFF30080BDE80840FFF7CFBF00BF33
:10022C0000000000040000202803000808B500F0BE
:10023C0015F804E0074A136843F080031360064B7B
:10024C001B6813F4005FF5D1024A136843F40003F2
:10025C001360F4E71804024010080240084A1368BF
:10026C0043F006031360A2F55052303A136843F47E
:10027C00804313600832136843F480431360704763
:10028C0030380240DFF830D00C480D490D4A0023BD
:10029C0002E0D458C4500433C4188C42F9D30A4A2F
:1002AC000A4C002301E013600432A242FBD300F09D
:1002BC0011F8FFF7BBFF704700000320000000207F
:1002CC000000002048030008000000201C00002053
:1002DC00FEE7000070B50D4D0D4C641BA4100026FC
:1002EC00A64209D10B4D0C4C00F018F8641BA4105D
:1002FC000026A64205D170BD55F8043B984701363F
:10030C00EEE755F8043B98470136F2E74003000846
:10031C00400300084003000844030008F8B500BF80
:10032C00F8BC08BC9E467047F8B500BFF8BC08BCCA
:04033C009E46704722
:04034000150200089A
:04034400ED010008BF
:04000005080002915C
:00000001FF
