:020000040800F2
:1000000000000320A1020008ED020008ED02000834
:10001000ED020008ED020008ED02000800000000FB
:10002000000000000000000000000000ED020008D9
:10003000ED02000800000000ED020008ED020008DB
:10004000ED020008ED020008ED020008ED020008D4
:10005000ED020008ED020008ED020008ED020008C4
:10006000ED020008ED020008ED020008ED020008B4
:10007000ED020008ED020008ED020008ED020008A4
:10008000ED020008ED020008ED020008ED02000894
:10009000ED020008ED020008ED020008ED02000884
:1000A000ED020008ED020008ED020008ED02000874
:1000B000ED020008ED020008ED020008ED02000864
:1000C000ED020008ED020008ED020008ED02000854
:1000D000ED020008ED020008ED020008ED02000844
:1000E000ED020008ED020008ED020008ED02000834
:1000F000ED020008ED020008ED020008ED02000824
:10010000ED020008ED020008ED020008ED02000813
:10011000ED020008ED020008ED020008ED02000803
:10012000ED020008ED020008ED020008ED020008F3
:10013000ED020008ED020008ED020008ED020008E3
:10014000ED020008ED020008ED020008ED020008D3
:10015000ED020008ED020008ED020008ED020008C3
:10016000ED020008ED020008ED020008ED020008B3
:10017000ED020008ED020008ED020008000000009A
:10018000ED020008ED020008ED020008ED02000893
:10019000ED020008ED020008ED020008ED02000883
:0C01A000ED020008ED020008ED0200086E
:1001AC000348044B834202D0034B03B118477047FA
:1001BC000000002000000020000000000548064B55
:1001CC001B1AD90F01EBA301491002D0034B03B149
:1001DC0018477047000000200000002000000000BD
:1001EC0010B5064C237843B9FFF7DAFF044B13B173
:1001FC000448AFF300800123237010BD00000020E1
:10020C00000000003803000808B5044B1BB104497A
:10021C000448AFF30080BDE80840CFE700000000C1
:10022C00040000203803000808B500F017F800F0AF
:10023C001DF804E0074A936943F400039361064BED
:10024C001B6913F4005FF5D0024A936943F08003F5
:10025C009361F4E70004024000080240024A136B69
:10026C0043F006031363704700380240084B1A68CA
:10027C0042F480421A605A6822F080025A609A68EE
:10028C0042F480429A60DA6822F48042DA60704765
:10029C0000040240DFF830D00C480D490D4A002311
:1002AC0002E0D458C4500433C4188C42F9D30A4A1F
:1002BC000A4C002301E013600432A242FBD300F08D
:1002CC0011F8FFF7B1FF7047000003200000002079
:1002DC000000002058030008000000201C00002033
:1002EC00FEE7000070B50D4B0D4D5B1B9C100026FE
:1002FC00A64209D100F01AF80A4D0B4B5B1B9C105F
:10030C000026A64205D170BD55F8043B984701362E
:10031C00EEE755F8043B98470136F2E75003000826
:10032C00500300085003000854030008F8B500BF40
:10033C00F8BC08BC9E467047F8B500BFF8BC08BCBA
:04034C009E46704712
:04035000150200088A
:04035400ED010008AF
:04000005080002A14C
:00000001FF
