:020000040800F2
:1000000000000320090300085503000855030008F9
:1000100055030008550300085503000800000000C0
:100020000000000000000000000000005503000870
:1000300055030008000000005503000855030008A0
:100040005503000855030008550300085503000830
:100050005503000855030008550300085503000820
:100060005503000855030008550300085503000810
:100070005503000855030008550300085503000800
:1000800055030008550300085503000855030008F0
:1000900055030008550300085503000855030008E0
:1000A00055030008550300085503000855030008D0
:1000B00055030008550300085503000855030008C0
:1000C00055030008550300085503000855030008B0
:1000D00055030008550300085503000855030008A0
:1000E0005503000855030008550300085503000890
:1000F0005503000855030008550300085503000880
:10010000550300085503000855030008550300086F
:10011000550300085503000855030008550300085F
:10012000550300085503000855030008550300084F
:10013000550300085503000855030008550300083F
:10014000550300085503000855030008550300082F
:10015000550300085503000855030008550300081F
:10016000550300085503000855030008550300080F
:10017000550300085503000855030008000000005F
:1001800055030008550300085503000855030008EF
:1001900055030008550300085503000855030008DF
:0C01A00055030008550300085503000833
:1001AC000348044B834202D0034B03B118477047FA
:1001BC000000002000000020000000000548064B55
:1001CC001B1AD90F01EBA301491002D0034B03B149
:1001DC0018477047000000200000002000000000BD
:1001EC0010B5064C237843B9FFF7DAFF044B13B173
:1001FC000448AFF300800123237010BD00000020E1
:10020C0000000000A003000808B5044B1BB1044912
:10021C000448AFF30080BDE80840CFE700000000C1
:10022C0004000020A003000808B500F029F800F035
:10023C002FF800F02FF80CE00F4B9A6942F40002F3
:10024C009A619A6942F080429A619A6942F48032CA
:10025C009A610A4B1B6913F4005FEDD0064B9A6947
:10026C0042F080029A619A6942F480429A619A69DA
:10027C0042F001029A61ECE70004024000080240DF
:10028C00024A136B43F006031363704700380240B5
:10029C0070470000184B1A6842F480421A605A6882
:1002AC0022F080025A609A6842F480429A60DA68BE
:1002BC0022F48042DA601A6842F080521A605A685E
:1002CC0022F480425A609A6842F080529A60DA684E
:1002DC0022F48042DA601A6842F001021A605A680D
:1002EC0022F001025A609A6842F001029A60DA68C0
:1002FC0022F00102DA60704700040240DFF830D0CF
:10030C000C480D490D4A002302E0D458C450043364
:10031C00C4188C42F9D30A4A0A4C002301E013603A
:10032C000432A242FBD300F011F8FFF77DFF7047B7
:10033C00000003200000002000000020C003000883
:10034C00000000201C000020FEE7000070B50D4BE3
:10035C000D4D5B1B9C100026A64209D100F01AF82B
:10036C000A4D0B4B5B1B9C100026A64205D170BDA1
:10037C0055F8043B98470136EEE755F8043B98478F
:10038C000136F2E7B8030008B8030008B803000808
:10039C00BC030008F8B500BFF8BC08BC9E4670470B
:0C03AC00F8B500BFF8BC08BC9E467047C6
:0403B8001502000822
:0403BC00ED01000847
:0400000508000309E3
:00000001FF
